{"abi":[{"inputs":[{"internalType":"string","name":"token_name","type":"string"},{"internalType":"string","name":"token_symbol","type":"string"},{"internalType":"uint8","name":"decimal_units","type":"uint8"},{"internalType":"uint256","name":"initial_supply","type":"uint256"}],"stateMutability":"nonpayable","type":"constructor"},{"anonymous":false,"inputs":[{"indexed":true,"internalType":"address","name":"to","type":"address"},{"indexed":false,"internalType":"uint256","name":"value","type":"uint256"}],"name":"Reward","type":"event"},{"anonymous":false,"inputs":[{"indexed":true,"internalType":"address","name":"from","type":"address"},{"indexed":true,"internalType":"address","name":"to","type":"address"},{"indexed":false,"internalType":"uint256","name":"value","type":"uint256"}],"name":"Transfer","type":"event"},{"inputs":[{"internalType":"address","name":"","type":"address"}],"name":"balanceOf","outputs":[{"internalType":"uint256","name":"","type":"uint256"}],"stateMutability":"view","type":"function"}],"devdoc":{"methods":{}},"evm":{"assembly":"    /* \"CharityToken.sol\":94:1795  contract CharityToken {\r... */\n  mstore(0x40, 0x80)\n    /* \"CharityToken.sol\":596:1057  constructor(\r... */\n  callvalue\n    /* \"--CODEGEN--\":5:14   */\n  dup1\n    /* \"--CODEGEN--\":2:4   */\n  iszero\n  tag_1\n  jumpi\n    /* \"--CODEGEN--\":27:28   */\n  0x00\n    /* \"--CODEGEN--\":24:25   */\n  dup1\n    /* \"--CODEGEN--\":17:29   */\n  revert\n    /* \"--CODEGEN--\":2:4   */\ntag_1:\n    /* \"CharityToken.sol\":596:1057  constructor(\r... */\n  pop\n  mload(0x40)\n  sub(codesize, bytecodeSize)\n  dup1\n  bytecodeSize\n  dup4\n  codecopy\n  dup2\n  dup2\n  add\n  0x40\n  mstore\n    /* \"--CODEGEN--\":15:18   */\n  0x80\n    /* \"--CODEGEN--\":10:13   */\n  dup2\n    /* \"--CODEGEN--\":7:19   */\n  lt\n    /* \"--CODEGEN--\":4:6   */\n  iszero\n  tag_2\n  jumpi\n    /* \"--CODEGEN--\":32:33   */\n  0x00\n    /* \"--CODEGEN--\":29:30   */\n  dup1\n    /* \"--CODEGEN--\":22:34   */\n  revert\n    /* \"--CODEGEN--\":4:6   */\ntag_2:\n    /* \"CharityToken.sol\":596:1057  constructor(\r... */\n  dup2\n  add\n  swap1\n  dup1\n  dup1\n  mload\n  mload(0x40)\n  swap4\n  swap3\n  swap2\n  swap1\n  dup5\n    /* \"--CODEGEN--\":19:30   */\n  0x0100000000\n    /* \"--CODEGEN--\":14:17   */\n  dup3\n    /* \"--CODEGEN--\":11:31   */\n  gt\n    /* \"--CODEGEN--\":8:10   */\n  iszero\n  tag_3\n  jumpi\n    /* \"--CODEGEN--\":44:45   */\n  0x00\n    /* \"--CODEGEN--\":41:42   */\n  dup1\n    /* \"--CODEGEN--\":34:46   */\n  revert\n    /* \"--CODEGEN--\":8:10   */\ntag_3:\n    /* \"--CODEGEN--\":71:82   */\n  dup4\n    /* \"--CODEGEN--\":66:69   */\n  dup3\n    /* \"--CODEGEN--\":62:83   */\n  add\n    /* \"--CODEGEN--\":55:83   */\n  swap2\n  pop\n    /* \"--CODEGEN--\":123:127   */\n  0x20\n    /* \"--CODEGEN--\":118:121   */\n  dup3\n    /* \"--CODEGEN--\":114:128   */\n  add\n    /* \"--CODEGEN--\":159:168   */\n  dup6\n    /* \"--CODEGEN--\":141:157   */\n  dup2\n    /* \"--CODEGEN--\":138:169   */\n  gt\n    /* \"--CODEGEN--\":135:137   */\n  iszero\n  tag_4\n  jumpi\n    /* \"--CODEGEN--\":182:183   */\n  0x00\n    /* \"--CODEGEN--\":179:180   */\n  dup1\n    /* \"--CODEGEN--\":172:184   */\n  revert\n    /* \"--CODEGEN--\":135:137   */\ntag_4:\n    /* \"--CODEGEN--\":219:222   */\n  dup3\n    /* \"--CODEGEN--\":213:223   */\n  mload\n    /* \"--CODEGEN--\":330:339   */\n  dup7\n    /* \"--CODEGEN--\":325:326   */\n  0x01\n    /* \"--CODEGEN--\":311:323   */\n  dup3\n    /* \"--CODEGEN--\":307:327   */\n  mul\n    /* \"--CODEGEN--\":289:305   */\n  dup4\n    /* \"--CODEGEN--\":285:328   */\n  add\n    /* \"--CODEGEN--\":282:340   */\n  gt\n    /* \"--CODEGEN--\":261:272   */\n  0x0100000000\n    /* \"--CODEGEN--\":247:259   */\n  dup3\n    /* \"--CODEGEN--\":244:273   */\n  gt\n    /* \"--CODEGEN--\":233:348   */\n  or\n    /* \"--CODEGEN--\":230:232   */\n  iszero\n  tag_5\n  jumpi\n    /* \"--CODEGEN--\":361:362   */\n  0x00\n    /* \"--CODEGEN--\":358:359   */\n  dup1\n    /* \"--CODEGEN--\":351:363   */\n  revert\n    /* \"--CODEGEN--\":230:232   */\ntag_5:\n    /* \"--CODEGEN--\":384:396   */\n  dup1\n    /* \"--CODEGEN--\":379:382   */\n  dup4\n    /* \"--CODEGEN--\":372:397   */\n  mstore\n    /* \"--CODEGEN--\":420:424   */\n  0x20\n    /* \"--CODEGEN--\":415:418   */\n  dup4\n    /* \"--CODEGEN--\":411:425   */\n  add\n    /* \"--CODEGEN--\":404:425   */\n  swap3\n  pop\n    /* \"--CODEGEN--\":0:432   */\n  pop\n  pop\n    /* \"CharityToken.sol\":596:1057  constructor(\r... */\n  swap1\n  dup1\n  mload\n  swap1\n  0x20\n  add\n  swap1\n  dup1\n  dup4\n  dup4\n    /* \"--CODEGEN--\":23:24   */\n  0x00\n    /* \"--CODEGEN--\":8:108   */\ntag_6:\n    /* \"--CODEGEN--\":33:36   */\n  dup4\n    /* \"--CODEGEN--\":30:31   */\n  dup2\n    /* \"--CODEGEN--\":27:37   */\n  lt\n    /* \"--CODEGEN--\":8:108   */\n  iszero\n  tag_8\n  jumpi\n    /* \"--CODEGEN--\":99:100   */\n  dup1\n    /* \"--CODEGEN--\":94:97   */\n  dup3\n    /* \"--CODEGEN--\":90:101   */\n  add\n    /* \"--CODEGEN--\":84:102   */\n  mload\n    /* \"--CODEGEN--\":80:81   */\n  dup2\n    /* \"--CODEGEN--\":75:78   */\n  dup5\n    /* \"--CODEGEN--\":71:82   */\n  add\n    /* \"--CODEGEN--\":64:103   */\n  mstore\n    /* \"--CODEGEN--\":52:54   */\n  0x20\n    /* \"--CODEGEN--\":49:50   */\n  dup2\n    /* \"--CODEGEN--\":45:55   */\n  add\n    /* \"--CODEGEN--\":40:55   */\n  swap1\n  pop\n    /* \"--CODEGEN--\":8:108   */\n  jump(tag_6)\ntag_8:\n    /* \"--CODEGEN--\":12:26   */\n  pop\n    /* \"CharityToken.sol\":596:1057  constructor(\r... */\n  pop\n  pop\n  pop\n  swap1\n  pop\n  swap1\n  dup2\n  add\n  swap1\n  0x1f\n  and\n  dup1\n  iszero\n  tag_9\n  jumpi\n  dup1\n  dup3\n  sub\n  dup1\n  mload\n  0x01\n  dup4\n  0x20\n  sub\n  0x0100\n  exp\n  sub\n  not\n  and\n  dup2\n  mstore\n  0x20\n  add\n  swap2\n  pop\ntag_9:\n  pop\n  0x40\n  mstore\n  0x20\n  add\n  dup1\n  mload\n  mload(0x40)\n  swap4\n  swap3\n  swap2\n  swap1\n  dup5\n    /* \"--CODEGEN--\":19:30   */\n  0x0100000000\n    /* \"--CODEGEN--\":14:17   */\n  dup3\n    /* \"--CODEGEN--\":11:31   */\n  gt\n    /* \"--CODEGEN--\":8:10   */\n  iszero\n  tag_10\n  jumpi\n    /* \"--CODEGEN--\":44:45   */\n  0x00\n    /* \"--CODEGEN--\":41:42   */\n  dup1\n    /* \"--CODEGEN--\":34:46   */\n  revert\n    /* \"--CODEGEN--\":8:10   */\ntag_10:\n    /* \"--CODEGEN--\":71:82   */\n  dup4\n    /* \"--CODEGEN--\":66:69   */\n  dup3\n    /* \"--CODEGEN--\":62:83   */\n  add\n    /* \"--CODEGEN--\":55:83   */\n  swap2\n  pop\n    /* \"--CODEGEN--\":123:127   */\n  0x20\n    /* \"--CODEGEN--\":118:121   */\n  dup3\n    /* \"--CODEGEN--\":114:128   */\n  add\n    /* \"--CODEGEN--\":159:168   */\n  dup6\n    /* \"--CODEGEN--\":141:157   */\n  dup2\n    /* \"--CODEGEN--\":138:169   */\n  gt\n    /* \"--CODEGEN--\":135:137   */\n  iszero\n  tag_11\n  jumpi\n    /* \"--CODEGEN--\":182:183   */\n  0x00\n    /* \"--CODEGEN--\":179:180   */\n  dup1\n    /* \"--CODEGEN--\":172:184   */\n  revert\n    /* \"--CODEGEN--\":135:137   */\ntag_11:\n    /* \"--CODEGEN--\":219:222   */\n  dup3\n    /* \"--CODEGEN--\":213:223   */\n  mload\n    /* \"--CODEGEN--\":330:339   */\n  dup7\n    /* \"--CODEGEN--\":325:326   */\n  0x01\n    /* \"--CODEGEN--\":311:323   */\n  dup3\n    /* \"--CODEGEN--\":307:327   */\n  mul\n    /* \"--CODEGEN--\":289:305   */\n  dup4\n    /* \"--CODEGEN--\":285:328   */\n  add\n    /* \"--CODEGEN--\":282:340   */\n  gt\n    /* \"--CODEGEN--\":261:272   */\n  0x0100000000\n    /* \"--CODEGEN--\":247:259   */\n  dup3\n    /* \"--CODEGEN--\":244:273   */\n  gt\n    /* \"--CODEGEN--\":233:348   */\n  or\n    /* \"--CODEGEN--\":230:232   */\n  iszero\n  tag_12\n  jumpi\n    /* \"--CODEGEN--\":361:362   */\n  0x00\n    /* \"--CODEGEN--\":358:359   */\n  dup1\n    /* \"--CODEGEN--\":351:363   */\n  revert\n    /* \"--CODEGEN--\":230:232   */\ntag_12:\n    /* \"--CODEGEN--\":384:396   */\n  dup1\n    /* \"--CODEGEN--\":379:382   */\n  dup4\n    /* \"--CODEGEN--\":372:397   */\n  mstore\n    /* \"--CODEGEN--\":420:424   */\n  0x20\n    /* \"--CODEGEN--\":415:418   */\n  dup4\n    /* \"--CODEGEN--\":411:425   */\n  add\n    /* \"--CODEGEN--\":404:425   */\n  swap3\n  pop\n    /* \"--CODEGEN--\":0:432   */\n  pop\n  pop\n    /* \"CharityToken.sol\":596:1057  constructor(\r... */\n  swap1\n  dup1\n  mload\n  swap1\n  0x20\n  add\n  swap1\n  dup1\n  dup4\n  dup4\n    /* \"--CODEGEN--\":23:24   */\n  0x00\n    /* \"--CODEGEN--\":8:108   */\ntag_13:\n    /* \"--CODEGEN--\":33:36   */\n  dup4\n    /* \"--CODEGEN--\":30:31   */\n  dup2\n    /* \"--CODEGEN--\":27:37   */\n  lt\n    /* \"--CODEGEN--\":8:108   */\n  iszero\n  tag_15\n  jumpi\n    /* \"--CODEGEN--\":99:100   */\n  dup1\n    /* \"--CODEGEN--\":94:97   */\n  dup3\n    /* \"--CODEGEN--\":90:101   */\n  add\n    /* \"--CODEGEN--\":84:102   */\n  mload\n    /* \"--CODEGEN--\":80:81   */\n  dup2\n    /* \"--CODEGEN--\":75:78   */\n  dup5\n    /* \"--CODEGEN--\":71:82   */\n  add\n    /* \"--CODEGEN--\":64:103   */\n  mstore\n    /* \"--CODEGEN--\":52:54   */\n  0x20\n    /* \"--CODEGEN--\":49:50   */\n  dup2\n    /* \"--CODEGEN--\":45:55   */\n  add\n    /* \"--CODEGEN--\":40:55   */\n  swap1\n  pop\n    /* \"--CODEGEN--\":8:108   */\n  jump(tag_13)\ntag_15:\n    /* \"--CODEGEN--\":12:26   */\n  pop\n    /* \"CharityToken.sol\":596:1057  constructor(\r... */\n  pop\n  pop\n  pop\n  swap1\n  pop\n  swap1\n  dup2\n  add\n  swap1\n  0x1f\n  and\n  dup1\n  iszero\n  tag_16\n  jumpi\n  dup1\n  dup3\n  sub\n  dup1\n  mload\n  0x01\n  dup4\n  0x20\n  sub\n  0x0100\n  exp\n  sub\n  not\n  and\n  dup2\n  mstore\n  0x20\n  add\n  swap2\n  pop\ntag_16:\n  pop\n  0x40\n  mstore\n  0x20\n  add\n  dup1\n  mload\n  swap1\n  0x20\n  add\n  swap1\n  swap3\n  swap2\n  swap1\n  dup1\n  mload\n  swap1\n  0x20\n  add\n  swap1\n  swap3\n  swap2\n  swap1\n  pop\n  pop\n  pop\n    /* \"CharityToken.sol\":792:806  initial_supply */\n  dup1\n    /* \"CharityToken.sol\":768:777  balanceOf */\n  0x00\n    /* \"CharityToken.sol\":768:789  balanceOf[msg.sender] */\n  dup1\n    /* \"CharityToken.sol\":778:788  msg.sender */\n  caller\n    /* \"CharityToken.sol\":768:789  balanceOf[msg.sender] */\n  0xffffffffffffffffffffffffffffffffffffffff\n  and\n  0xffffffffffffffffffffffffffffffffffffffff\n  and\n  dup2\n  mstore\n  0x20\n  add\n  swap1\n  dup2\n  mstore\n  0x20\n  add\n  0x00\n  keccak256\n    /* \"CharityToken.sol\":768:806  balanceOf[msg.sender] = initial_supply */\n  dup2\n  swap1\n  sstore\n  pop\n    /* \"CharityToken.sol\":831:845  initial_supply */\n  dup1\n    /* \"CharityToken.sol\":817:828  totalSupply */\n  0x05\n    /* \"CharityToken.sol\":817:845  totalSupply = initial_supply */\n  dup2\n  swap1\n  sstore\n  pop\n    /* \"CharityToken.sol\":872:886  initial_supply */\n  dup1\n    /* \"CharityToken.sol\":856:869  initialSupply */\n  0x06\n    /* \"CharityToken.sol\":856:886  initialSupply = initial_supply */\n  dup2\n  swap1\n  sstore\n  pop\n    /* \"CharityToken.sol\":904:914  token_name */\n  dup4\n    /* \"CharityToken.sol\":897:901  name */\n  0x01\n    /* \"CharityToken.sol\":897:914  name = token_name */\n  swap1\n  dup1\n  mload\n  swap1\n  0x20\n  add\n  swap1\n  tag_19\n  swap3\n  swap2\n  swap1\n  tag_20\n  jump\t// in\ntag_19:\n  pop\n    /* \"CharityToken.sol\":934:946  token_symbol */\n  dup3\n    /* \"CharityToken.sol\":925:931  symbol */\n  0x02\n    /* \"CharityToken.sol\":925:946  symbol = token_symbol */\n  swap1\n  dup1\n  mload\n  swap1\n  0x20\n  add\n  swap1\n  tag_21\n  swap3\n  swap2\n  swap1\n  tag_20\n  jump\t// in\ntag_21:\n  pop\n    /* \"CharityToken.sol\":967:980  decimal_units */\n  dup2\n    /* \"CharityToken.sol\":957:964  decimal */\n  0x03\n  0x00\n    /* \"CharityToken.sol\":957:980  decimal = decimal_units */\n  0x0100\n  exp\n  dup2\n  sload\n  dup2\n  0xff\n  mul\n  not\n  and\n  swap1\n  dup4\n  0xff\n  and\n  mul\n  or\n  swap1\n  sstore\n  pop\n    /* \"CharityToken.sol\":998:1006  1 finney */\n  0x038d7ea4c68000\n    /* \"CharityToken.sol\":991:995  rate */\n  0x04\n    /* \"CharityToken.sol\":991:1006  rate = 1 finney */\n  dup2\n  swap1\n  sstore\n  pop\n    /* \"CharityToken.sol\":596:1057  constructor(\r... */\n  pop\n  pop\n  pop\n  pop\n    /* \"CharityToken.sol\":94:1795  contract CharityToken {\r... */\n  jump(tag_22)\ntag_20:\n  dup3\n  dup1\n  sload\n  0x01\n  dup2\n  0x01\n  and\n  iszero\n  0x0100\n  mul\n  sub\n  and\n  0x02\n  swap1\n  div\n  swap1\n  0x00\n  mstore\n  keccak256(0x00, 0x20)\n  swap1\n  0x1f\n  add\n  0x20\n  swap1\n  div\n  dup2\n  add\n  swap3\n  dup3\n  0x1f\n  lt\n  tag_24\n  jumpi\n  dup1\n  mload\n  not(0xff)\n  and\n  dup4\n  dup1\n  add\n  or\n  dup6\n  sstore\n  jump(tag_23)\ntag_24:\n  dup3\n  dup1\n  add\n  0x01\n  add\n  dup6\n  sstore\n  dup3\n  iszero\n  tag_23\n  jumpi\n  swap2\n  dup3\n  add\ntag_25:\n  dup3\n  dup2\n  gt\n  iszero\n  tag_26\n  jumpi\n  dup3\n  mload\n  dup3\n  sstore\n  swap2\n  0x20\n  add\n  swap2\n  swap1\n  0x01\n  add\n  swap1\n  jump(tag_25)\ntag_26:\ntag_23:\n  pop\n  swap1\n  pop\n  tag_27\n  swap2\n  swap1\n  tag_28\n  jump\t// in\ntag_27:\n  pop\n  swap1\n  jump\t// out\ntag_28:\n  tag_29\n  swap2\n  swap1\ntag_30:\n  dup1\n  dup3\n  gt\n  iszero\n  tag_31\n  jumpi\n  0x00\n  dup2\n  0x00\n  swap1\n  sstore\n  pop\n  0x01\n  add\n  jump(tag_30)\ntag_31:\n  pop\n  swap1\n  jump\ntag_29:\n  swap1\n  jump\t// out\ntag_22:\n  dataSize(sub_0)\n  dup1\n  dataOffset(sub_0)\n  0x00\n  codecopy\n  0x00\n  return\nstop\n\nsub_0: assembly {\n        /* \"CharityToken.sol\":94:1795  contract CharityToken {\r... */\n      mstore(0x40, 0x80)\n      callvalue\n        /* \"--CODEGEN--\":5:14   */\n      dup1\n        /* \"--CODEGEN--\":2:4   */\n      iszero\n      tag_1\n      jumpi\n        /* \"--CODEGEN--\":27:28   */\n      0x00\n        /* \"--CODEGEN--\":24:25   */\n      dup1\n        /* \"--CODEGEN--\":17:29   */\n      revert\n        /* \"--CODEGEN--\":2:4   */\n    tag_1:\n        /* \"CharityToken.sol\":94:1795  contract CharityToken {\r... */\n      pop\n      jumpi(tag_2, lt(calldatasize, 0x04))\n      shr(0xe0, calldataload(0x00))\n      dup1\n      0x70a08231\n      eq\n      tag_3\n      jumpi\n    tag_2:\n        /* \"--CODEGEN--\":12:13   */\n      0x00\n        /* \"--CODEGEN--\":9:10   */\n      dup1\n        /* \"--CODEGEN--\":2:14   */\n      revert\n        /* \"CharityToken.sol\":123:167  mapping(address => uint256) public balanceOf */\n    tag_3:\n      tag_4\n      0x04\n      dup1\n      calldatasize\n      sub\n        /* \"--CODEGEN--\":15:17   */\n      0x20\n        /* \"--CODEGEN--\":10:13   */\n      dup2\n        /* \"--CODEGEN--\":7:18   */\n      lt\n        /* \"--CODEGEN--\":4:6   */\n      iszero\n      tag_5\n      jumpi\n        /* \"--CODEGEN--\":31:32   */\n      0x00\n        /* \"--CODEGEN--\":28:29   */\n      dup1\n        /* \"--CODEGEN--\":21:33   */\n      revert\n        /* \"--CODEGEN--\":4:6   */\n    tag_5:\n        /* \"CharityToken.sol\":123:167  mapping(address => uint256) public balanceOf */\n      dup2\n      add\n      swap1\n      dup1\n      dup1\n      calldataload\n      0xffffffffffffffffffffffffffffffffffffffff\n      and\n      swap1\n      0x20\n      add\n      swap1\n      swap3\n      swap2\n      swap1\n      pop\n      pop\n      pop\n      tag_6\n      jump\t// in\n    tag_4:\n      mload(0x40)\n      dup1\n      dup3\n      dup2\n      mstore\n      0x20\n      add\n      swap2\n      pop\n      pop\n      mload(0x40)\n      dup1\n      swap2\n      sub\n      swap1\n      return\n    tag_6:\n      mstore(0x20, 0x00)\n      dup1\n      0x00\n      mstore\n      keccak256(0x00, 0x40)\n      0x00\n      swap2\n      pop\n      swap1\n      pop\n      sload\n      dup2\n      jump\t// out\n\n    auxdata: 0xa2646970667358221220456d422e98fa152f4e48636a2b67aed8cae2e29988ac7f161e00a6c1f639498764736f6c63430006070033\n}\n","bytecode":{"linkReferences":{},"object":"608060405234801561001057600080fd5b506040516103f03803806103f08339818101604052608081101561003357600080fd5b810190808051604051939291908464010000000082111561005357600080fd5b8382019150602082018581111561006957600080fd5b825186600182028301116401000000008211171561008657600080fd5b8083526020830192505050908051906020019080838360005b838110156100ba57808201518184015260208101905061009f565b50505050905090810190601f1680156100e75780820380516001836020036101000a031916815260200191505b506040526020018051604051939291908464010000000082111561010a57600080fd5b8382019150602082018581111561012057600080fd5b825186600182028301116401000000008211171561013d57600080fd5b8083526020830192505050908051906020019080838360005b83811015610171578082015181840152602081019050610156565b50505050905090810190601f16801561019e5780820380516001836020036101000a031916815260200191505b506040526020018051906020019092919080519060200190929190505050806000803373ffffffffffffffffffffffffffffffffffffffff1673ffffffffffffffffffffffffffffffffffffffff168152602001908152602001600020819055508060058190555080600681905550836001908051906020019061022392919061026d565b50826002908051906020019061023a92919061026d565b5081600360006101000a81548160ff021916908360ff16021790555066038d7ea4c6800060048190555050505050610312565b828054600181600116156101000203166002900490600052602060002090601f016020900481019282601f106102ae57805160ff19168380011785556102dc565b828001600101855582156102dc579182015b828111156102db5782518255916020019190600101906102c0565b5b5090506102e991906102ed565b5090565b61030f91905b8082111561030b5760008160009055506001016102f3565b5090565b90565b60d0806103206000396000f3fe6080604052348015600f57600080fd5b506004361060285760003560e01c806370a0823114602d575b600080fd5b606c60048036036020811015604157600080fd5b81019080803573ffffffffffffffffffffffffffffffffffffffff1690602001909291905050506082565b6040518082815260200191505060405180910390f35b6000602052806000526040600020600091509050548156fea2646970667358221220456d422e98fa152f4e48636a2b67aed8cae2e29988ac7f161e00a6c1f639498764736f6c63430006070033","opcodes":"PUSH1 0x80 PUSH1 0x40 MSTORE CALLVALUE DUP1 ISZERO PUSH2 0x10 JUMPI PUSH1 0x0 DUP1 REVERT JUMPDEST POP PUSH1 0x40 MLOAD PUSH2 0x3F0 CODESIZE SUB DUP1 PUSH2 0x3F0 DUP4 CODECOPY DUP2 DUP2 ADD PUSH1 0x40 MSTORE PUSH1 0x80 DUP2 LT ISZERO PUSH2 0x33 JUMPI PUSH1 0x0 DUP1 REVERT JUMPDEST DUP2 ADD SWAP1 DUP1 DUP1 MLOAD PUSH1 0x40 MLOAD SWAP4 SWAP3 SWAP2 SWAP1 DUP5 PUSH5 0x100000000 DUP3 GT ISZERO PUSH2 0x53 JUMPI PUSH1 0x0 DUP1 REVERT JUMPDEST DUP4 DUP3 ADD SWAP2 POP PUSH1 0x20 DUP3 ADD DUP6 DUP2 GT ISZERO PUSH2 0x69 JUMPI PUSH1 0x0 DUP1 REVERT JUMPDEST DUP3 MLOAD DUP7 PUSH1 0x1 DUP3 MUL DUP4 ADD GT PUSH5 0x100000000 DUP3 GT OR ISZERO PUSH2 0x86 JUMPI PUSH1 0x0 DUP1 REVERT JUMPDEST DUP1 DUP4 MSTORE PUSH1 0x20 DUP4 ADD SWAP3 POP POP POP SWAP1 DUP1 MLOAD SWAP1 PUSH1 0x20 ADD SWAP1 DUP1 DUP4 DUP4 PUSH1 0x0 JUMPDEST DUP4 DUP2 LT ISZERO PUSH2 0xBA JUMPI DUP1 DUP3 ADD MLOAD DUP2 DUP5 ADD MSTORE PUSH1 0x20 DUP2 ADD SWAP1 POP PUSH2 0x9F JUMP JUMPDEST POP POP POP POP SWAP1 POP SWAP1 DUP2 ADD SWAP1 PUSH1 0x1F AND DUP1 ISZERO PUSH2 0xE7 JUMPI DUP1 DUP3 SUB DUP1 MLOAD PUSH1 0x1 DUP4 PUSH1 0x20 SUB PUSH2 0x100 EXP SUB NOT AND DUP2 MSTORE PUSH1 0x20 ADD SWAP2 POP JUMPDEST POP PUSH1 0x40 MSTORE PUSH1 0x20 ADD DUP1 MLOAD PUSH1 0x40 MLOAD SWAP4 SWAP3 SWAP2 SWAP1 DUP5 PUSH5 0x100000000 DUP3 GT ISZERO PUSH2 0x10A JUMPI PUSH1 0x0 DUP1 REVERT JUMPDEST DUP4 DUP3 ADD SWAP2 POP PUSH1 0x20 DUP3 ADD DUP6 DUP2 GT ISZERO PUSH2 0x120 JUMPI PUSH1 0x0 DUP1 REVERT JUMPDEST DUP3 MLOAD DUP7 PUSH1 0x1 DUP3 MUL DUP4 ADD GT PUSH5 0x100000000 DUP3 GT OR ISZERO PUSH2 0x13D JUMPI PUSH1 0x0 DUP1 REVERT JUMPDEST DUP1 DUP4 MSTORE PUSH1 0x20 DUP4 ADD SWAP3 POP POP POP SWAP1 DUP1 MLOAD SWAP1 PUSH1 0x20 ADD SWAP1 DUP1 DUP4 DUP4 PUSH1 0x0 JUMPDEST DUP4 DUP2 LT ISZERO PUSH2 0x171 JUMPI DUP1 DUP3 ADD MLOAD DUP2 DUP5 ADD MSTORE PUSH1 0x20 DUP2 ADD SWAP1 POP PUSH2 0x156 JUMP JUMPDEST POP POP POP POP SWAP1 POP SWAP1 DUP2 ADD SWAP1 PUSH1 0x1F AND DUP1 ISZERO PUSH2 0x19E JUMPI DUP1 DUP3 SUB DUP1 MLOAD PUSH1 0x1 DUP4 PUSH1 0x20 SUB PUSH2 0x100 EXP SUB NOT AND DUP2 MSTORE PUSH1 0x20 ADD SWAP2 POP JUMPDEST POP PUSH1 0x40 MSTORE PUSH1 0x20 ADD DUP1 MLOAD SWAP1 PUSH1 0x20 ADD SWAP1 SWAP3 SWAP2 SWAP1 DUP1 MLOAD SWAP1 PUSH1 0x20 ADD SWAP1 SWAP3 SWAP2 SWAP1 POP POP POP DUP1 PUSH1 0x0 DUP1 CALLER PUSH20 0xFFFFFFFFFFFFFFFFFFFFFFFFFFFFFFFFFFFFFFFF AND PUSH20 0xFFFFFFFFFFFFFFFFFFFFFFFFFFFFFFFFFFFFFFFF AND DUP2 MSTORE PUSH1 0x20 ADD SWAP1 DUP2 MSTORE PUSH1 0x20 ADD PUSH1 0x0 KECCAK256 DUP2 SWAP1 SSTORE POP DUP1 PUSH1 0x5 DUP2 SWAP1 SSTORE POP DUP1 PUSH1 0x6 DUP2 SWAP1 SSTORE POP DUP4 PUSH1 0x1 SWAP1 DUP1 MLOAD SWAP1 PUSH1 0x20 ADD SWAP1 PUSH2 0x223 SWAP3 SWAP2 SWAP1 PUSH2 0x26D JUMP JUMPDEST POP DUP3 PUSH1 0x2 SWAP1 DUP1 MLOAD SWAP1 PUSH1 0x20 ADD SWAP1 PUSH2 0x23A SWAP3 SWAP2 SWAP1 PUSH2 0x26D JUMP JUMPDEST POP DUP2 PUSH1 0x3 PUSH1 0x0 PUSH2 0x100 EXP DUP2 SLOAD DUP2 PUSH1 0xFF MUL NOT AND SWAP1 DUP4 PUSH1 0xFF AND MUL OR SWAP1 SSTORE POP PUSH7 0x38D7EA4C68000 PUSH1 0x4 DUP2 SWAP1 SSTORE POP POP POP POP POP PUSH2 0x312 JUMP JUMPDEST DUP3 DUP1 SLOAD PUSH1 0x1 DUP2 PUSH1 0x1 AND ISZERO PUSH2 0x100 MUL SUB AND PUSH1 0x2 SWAP1 DIV SWAP1 PUSH1 0x0 MSTORE PUSH1 0x20 PUSH1 0x0 KECCAK256 SWAP1 PUSH1 0x1F ADD PUSH1 0x20 SWAP1 DIV DUP2 ADD SWAP3 DUP3 PUSH1 0x1F LT PUSH2 0x2AE JUMPI DUP1 MLOAD PUSH1 0xFF NOT AND DUP4 DUP1 ADD OR DUP6 SSTORE PUSH2 0x2DC JUMP JUMPDEST DUP3 DUP1 ADD PUSH1 0x1 ADD DUP6 SSTORE DUP3 ISZERO PUSH2 0x2DC JUMPI SWAP2 DUP3 ADD JUMPDEST DUP3 DUP2 GT ISZERO PUSH2 0x2DB JUMPI DUP3 MLOAD DUP3 SSTORE SWAP2 PUSH1 0x20 ADD SWAP2 SWAP1 PUSH1 0x1 ADD SWAP1 PUSH2 0x2C0 JUMP JUMPDEST JUMPDEST POP SWAP1 POP PUSH2 0x2E9 SWAP2 SWAP1 PUSH2 0x2ED JUMP JUMPDEST POP SWAP1 JUMP JUMPDEST PUSH2 0x30F SWAP2 SWAP1 JUMPDEST DUP1 DUP3 GT ISZERO PUSH2 0x30B JUMPI PUSH1 0x0 DUP2 PUSH1 0x0 SWAP1 SSTORE POP PUSH1 0x1 ADD PUSH2 0x2F3 JUMP JUMPDEST POP SWAP1 JUMP JUMPDEST SWAP1 JUMP JUMPDEST PUSH1 0xD0 DUP1 PUSH2 0x320 PUSH1 0x0 CODECOPY PUSH1 0x0 RETURN INVALID PUSH1 0x80 PUSH1 0x40 MSTORE CALLVALUE DUP1 ISZERO PUSH1 0xF JUMPI PUSH1 0x0 DUP1 REVERT JUMPDEST POP PUSH1 0x4 CALLDATASIZE LT PUSH1 0x28 JUMPI PUSH1 0x0 CALLDATALOAD PUSH1 0xE0 SHR DUP1 PUSH4 0x70A08231 EQ PUSH1 0x2D JUMPI JUMPDEST PUSH1 0x0 DUP1 REVERT JUMPDEST PUSH1 0x6C PUSH1 0x4 DUP1 CALLDATASIZE SUB PUSH1 0x20 DUP2 LT ISZERO PUSH1 0x41 JUMPI PUSH1 0x0 DUP1 REVERT JUMPDEST DUP2 ADD SWAP1 DUP1 DUP1 CALLDATALOAD PUSH20 0xFFFFFFFFFFFFFFFFFFFFFFFFFFFFFFFFFFFFFFFF AND SWAP1 PUSH1 0x20 ADD SWAP1 SWAP3 SWAP2 SWAP1 POP POP POP PUSH1 0x82 JUMP JUMPDEST PUSH1 0x40 MLOAD DUP1 DUP3 DUP2 MSTORE PUSH1 0x20 ADD SWAP2 POP POP PUSH1 0x40 MLOAD DUP1 SWAP2 SUB SWAP1 RETURN JUMPDEST PUSH1 0x0 PUSH1 0x20 MSTORE DUP1 PUSH1 0x0 MSTORE PUSH1 0x40 PUSH1 0x0 KECCAK256 PUSH1 0x0 SWAP2 POP SWAP1 POP SLOAD DUP2 JUMP INVALID LOG2 PUSH5 0x6970667358 0x22 SLT KECCAK256 GASLIMIT PUSH14 0x422E98FA152F4E48636A2B67AED8 0xCA 0xE2 0xE2 SWAP10 DUP9 0xAC PUSH32 0x161E00A6C1F639498764736F6C63430006070033000000000000000000000000 "},"gasEstimates":{"creation":{"codeDepositCost":"41600","executionCost":"infinite","totalCost":"infinite"},"external":{"balanceOf(address)":"1147"},"internal":{"rewardToken(address,uint256)":"infinite"}},"methodIdentifiers":{"balanceOf(address)":"70a08231"}},"storageLayout":{"storage":[{"astId":479,"contract":"CharityToken.sol:CharityToken","label":"balanceOf","offset":0,"slot":"0","type":"t_mapping(t_address,t_uint256)"},{"astId":481,"contract":"CharityToken.sol:CharityToken","label":"name","offset":0,"slot":"1","type":"t_string_storage"},{"astId":483,"contract":"CharityToken.sol:CharityToken","label":"symbol","offset":0,"slot":"2","type":"t_string_storage"},{"astId":485,"contract":"CharityToken.sol:CharityToken","label":"decimal","offset":0,"slot":"3","type":"t_uint8"},{"astId":487,"contract":"CharityToken.sol:CharityToken","label":"rate","offset":0,"slot":"4","type":"t_uint256"},{"astId":489,"contract":"CharityToken.sol:CharityToken","label":"totalSupply","offset":0,"slot":"5","type":"t_uint256"},{"astId":491,"contract":"CharityToken.sol:CharityToken","label":"initialSupply","offset":0,"slot":"6","type":"t_uint256"}],"types":{"t_address":{"encoding":"inplace","label":"address","numberOfBytes":"20"},"t_mapping(t_address,t_uint256)":{"encoding":"mapping","key":"t_address","label":"mapping(address => uint256)","numberOfBytes":"32","value":"t_uint256"},"t_string_storage":{"encoding":"bytes","label":"string","numberOfBytes":"32"},"t_uint256":{"encoding":"inplace","label":"uint256","numberOfBytes":"32"},"t_uint8":{"encoding":"inplace","label":"uint8","numberOfBytes":"1"}}},"userdoc":{"methods":{}}}